:100000000C9461000C9489000C9489000C94890074
:100010000C9489000C9489000C9489000C9489003C
:100020000C9489000C9489000C9489000C9489002C
:100030000C9489000C94CB130C9489000C948900C7
:100040000C9489000C9489000C9489000C9489000C
:100050000C9489000C9489000C9489000C948900FC
:100060000C9489000C948900084AD73B3BCE016E62
:1000700084BCBFFDC12F3D6C74319ABD56833DDAFF
:100080003D00C77F11BED9E4BB4C3E916BAAAABE0E
:10009000000000803F072C7AA5BA6CC590DA3B932C
:1000A00065FC8BBC53F810FD3C5692834DBD879D7B
:1000B0003AB63DCBC9BF5BBE73DA0FC93F00F81437
:1000C000051511241FBECFEFD8E0DEBFCDBF11E074
:1000D000A0E0B1E0EEEFF4E602C005900D92A63A82
:1000E000B107D9F712E0A6EAB1E001C01D92A03134
:1000F000B107E1F710E0C0ECD0E004C02297FE01A8
:100100000E945A2ECE3BD107C9F70E942C0F0C94A7
:1001100072320C940000DF93CF93CDB7DEB78CEB37
:1001200090E024EAFC01208300008CEB90E0FC01CD
:1001300080818095881F8827881F8823B1F7CF91F9
:10014000DF910895DF93CF930F92CDB7DEB7898308
:100150008BEB90E02981FC0120838CEB90E024E87C
:10016000FC01208300008CEB90E0FC0180818095F5
:10017000881F8827881F8823B1F70F90CF91DF91C0
:100180000895DF93CF93CDB7DEB78CEB90E024ECEE
:10019000FC01208300008CEB90E0FC0180818095C5
:1001A000881F8827881F8823B1F78BEB90E0FC011C
:1001B0008081CF91DF910895DF93CF93CDB7DEB7E4
:1001C0008CEB90E024E8FC01208300008CEB90E0B5
:1001D000FC0180818095881F8827881F8823B1F7BC
:1001E0008BEB90E0FC018081CF91DF910895DF934C
:1001F000CF93CDB7DEB78CEB90E024E9FC012083F0
:10020000CF91DF910895EF92FF920F931F93DF93A9
:10021000CF9300D000D0CDB7DEB79C838B8382E034
:1002200090E09A8389838B819C81FC0180819181FC
:10023000A281B381BC01CD0120E03EEF4FEF56E437
:100240000E94A82BDC01CB017C018D0189819A8160
:10025000AA2797FDA095BA2FBC01CD010E94432C7F
:100260009B01AC01C801B7010E943E2DDC01CB010E
:100270002B813C81F90180839183A283B3838B819D
:100280009C81FC0184819581A681B781BC01CD014F
:1002900020E03EEF4FEF56E40E94A82BDC01CB019B
:1002A0007C018D0189819A81AA2797FDA095BA2F9B
:1002B000BC01CD010E94432C9B01AC01C801B701D8
:1002C0000E943E2DDC01CB012B813C81F90184830E
:1002D0009583A683B7838B819C81FC018085918562
:1002E000A285B385BC01CD0120E03EEF4FEF56E47F
:1002F0000E94A82BDC01CB017C018D0189819A81B0
:10030000AA2797FDA095BA2FBC01CD010E94432CCE
:100310009B01AC01C801B7010E943E2DDC01CB015D
:100320002B813C81F90180879187A287B3870F9049
:100330000F900F900F90CF91DF911F910F91FF9031
:10034000EF900895AF92BF92CF92DF92EF92FF921B
:100350000F931F93DF93CF93CDB7DEB76C970FB694
:10036000F894DEBF0FBECDBF5C01C98ADA8AEB8A82
:10037000FC8A0D8B1E8B2F8B388F498F5A8F6B8F7A
:100380007C8F80E090E0DC01F50180839183A28383
:10039000B38380E090E0DC01F50184839583A6833C
:1003A000B78380E090E0DC01F50180879187A28728
:1003B000B38789899A89AB89BC8929893A894B890C
:1003C0005C89BC01CD010E943E2DDC01CB017C018A
:1003D0008D018D899E89AF89B88D2D893E894F8980
:1003E000588DBC01CD010E943E2DDC01CB019C014A
:1003F000AD01C801B7010E94DE2ADC01CB017C01FE
:100400008D01898D9A8DAB8DBC8D298D3A8D4B8D4B
:100410005C8DBC01CD010E943E2DDC01CB019C0115
:10042000AD01C801B7010E94DE2ADC01CB01BC018D
:10043000CD010E94C52DDC01CB0189839A83AB835A
:10044000BC83898D9A8DAB8DBC8D11E0BC01CD0133
:1004500020E030E0A9010E94A42B88230CF010E0DA
:10046000112309F449C089899A89AB89BC89BC01E7
:10047000CD0129813A814B815C810E94A82BDC014E
:10048000CB01BC01CD010E94CF2ADC01CB01B058C9
:10049000BC01CD0126EF38E245E652E40E943E2D34
:1004A000DC01CB01F50180839183A283B3838D8925
:1004B0009E89AF89B88DBC01CD0129813A814B81DC
:1004C0005C810E94A82BDC01CB01BC01CD010E9404
:1004D000CF2ADC01CB01B058BC01CD0126EF38E2B8
:1004E00045E652E40E943E2DDC01CB01F5018483F8
:1004F0009583A683B78346C089899A89AB89BC89CD
:10050000BC01CD0129813A814B815C810E94A82BDD
:10051000DC01CB01BC01CD010E94CF2ADC01CB0163
:10052000BC01CD0126EF38E245E652E40E943E2DA3
:10053000DC01CB01F50180839183A283B3838D8994
:100540009E89AF89B88DBC01CD0129813A814B814B
:100550005C810E94A82BDC01CB01BC01CD010E9473
:10056000CF2ADC01CB01BC01CD0126EF38E245E604
:1005700052E40E943E2DDC01CB01F501848395837A
:10058000A683B783898D9A8DAB8DBC8DBC01CD01BF
:1005900029813A814B815C810E94A82BDC01CB012F
:1005A000BC01CD010E94CF2ADC01CB01BC01CD01F1
:1005B00026EF38E245E652E40E943E2DDC01CB01F5
:1005C000F50180879187A287B387F50180819181AA
:1005D000A281B381BC01CD0120E030E044EB52E4C4
:1005E0000E94DD2ADC01CB01F50180839183A28387
:1005F000B383F50180819181A281B38111E0BC01B7
:10060000CD0120E030E044E353EC0E94A42B88238A
:100610000CF010E01123A1F0F50180819181A281FD
:10062000B381BC01CD0120E030E044EB53E40E94F3
:10063000DE2ADC01CB01F50180839183A283B383A1
:10064000F50184819581A681B781BC01CD0120E0AF
:1006500030E044EB52E40E94DD2ADC01CB01F501DD
:1006600084839583A683B783F50184819581A681D0
:10067000B78111E0BC01CD0120E030E044E353EC50
:100680000E94A42B88230CF010E01123A9F0F5019F
:1006900084819581A681B781BC01CD0120E030E045
:1006A00044EB53E40E94DE2ADC01CB01F501848394
:1006B0009583A683B78301C00000C5016C960FB671
:1006C000F894DEBF0FBECDBFCF91DF911F910F9188
:1006D000FF90EF90DF90CF90BF90AF900895AF92D2
:1006E000BF92CF92DF92EF92FF920F931F93DF930F
:1006F000CF93CDB7DEB7E0970FB6F894DEBF0FBE4D
:10070000CDBF5C019E01235F3F4FCE010196B90131
:100710000E944222CE0101960E940301CE018596DD
:10072000C980DA80EB80FC800D811E812F813885A5
:1007300049855A856B857C850E94A201C5019E0171
:100740002B5D3F4F4CE0F90100802F5F3F4FFC01D4
:100750000082019641504423B1F7F50180819181D7
:10076000A281B38111E0BC01CD0120E030E0A901FC
:100770000E94A42B88230CF010E0112361F0F501F6
:1007800080859185A285B385B058F50180879187D2
:10079000A287B38701C00000C501E0960FB6F894A8
:1007A000DEBF0FBECDBFCF91DF911F910F91FF90A4
:1007B000EF90DF90CF90BF90AF900895AF92BF922F
:1007C000CF92DF92EF92FF920F931F93DF93CF931D
:1007D000CDB7DEB7C054D0400FB6F894DEBF0FBE21
:1007E000CDBF5C0180E090E0DC018D8F9E8FAF8FEC
:1007F000B8A380E090E0A0E8BFEB89A39AA3ABA3E5
:10080000BCA380E090E0DC018DA39EA3AFA3B8A7BA
:10081000CE0105969E012F5E3F4FB9010E944222F4
:10082000CE010596AE014F5E5F4F9E01235E3F4FA6
:10083000BA01A9010E94B124DC01CB0189839A830A
:10084000AB83BC83CE0105960E940301CE01C59601
:10085000CD80DE80EF80F88409851A852B853C8564
:100860004D855E856F8578890E94A201C5019E0134
:100870002B5C3F4F4CE0F90100802F5F3F4FFC01A4
:100880000082019641504423B1F789819A81AB815E
:10089000BC81F50180879187A287B387C501C05CC1
:1008A000DF4F0FB6F894DEBF0FBECDBFCF91DF9103
:1008B0001F910F91FF90EF90DF90CF90BF90AF907E
:1008C00008956F927F928F929F92AF92BF92CF9234
:1008D000DF92EF92FF920F931F93DF93CF93CDB7E9
:1008E000DEB7C65BD1400FB6F894DEBF0FBECDBFFA
:1008F0005C0180E090E0DC01F50180839183A283BC
:10090000B38380E090E0DC01F50184839583A683C6
:10091000B78380E090E0DC01F50180879187A287B2
:10092000B38780E090E0DC018BA79CA7ADA7BEA7B2
:1009300080E090E0DC018FA798ABA9ABBAAB80E078
:1009400090E0DC018BAB9CABADABBEAB80E090E04C
:10095000DC018FAB98AFA9AFBAAF80E090E0DC01CB
:100960008BAF9CAFADAFBEAF9E01215C3F4F80E02F
:1009700090E0DC01F90180839183A283B3831A8222
:10098000198242C0CE0107969E012D5E3F4FB901EC
:100990000E944222CE0107960E940301AE014D5BE8
:1009A0005F4F29813A81C901880F991F820F931FD8
:1009B000880F991F880F991F4A01880E991ECE0132
:1009C00085559E4FCF80D884E984FA840B851C8599
:1009D0002D853E854F85588969897A890E94A201B3
:1009E0009E0125553E4FC4014CE0F90100802F5F68
:1009F0003F4FFC010082019641504423B1F78981A9
:100A00009A8101969A83898321E089819A81843130
:100A100091050CF020E0222309F0B4CF1C821B8248
:100A200072C08BA59CA5ADA5BEA5BE016D5B7F4F19
:100A30004B815C819A01220F331F240F351F220F37
:100A4000331F220F331F260F371FF90120813181F9
:100A500042815381BC01CD010E94DE2ADC01CB0121
:100A60008BA79CA7ADA7BEA78FA598A9A9A9BAA92E
:100A7000BE016D5B7F4F4B815C819A01220F331F5A
:100A8000240F351F220F331F220F331F260F371F4E
:100A90002C5F3F4FF9012081318142815381BC019C
:100AA000CD010E94DE2ADC01CB018FA798ABA9AB58
:100AB000BAAB8BA99CA9ADA9BEA9BE016D5B7F4F46
:100AC0004B815C819A01220F331F240F351F220FA7
:100AD000331F220F331F260F371F285F3F4FF901A7
:100AE0002081318142815381BC01CD010E94DE2AE7
:100AF000DC01CB018BAB9CABADABBEAB8B819C81E6
:100B000001969C838B8321E08B819C8184319105AC
:100B10000CF020E0222309F084CF1E821D82D2C077
:100B2000EFA8F8AC09AD1AADAE014D5B5F4F2D815A
:100B30003E81C901880F991F820F931F880F991F4B
:100B4000880F991F840F951FFC0180819181A281DC
:100B5000B381BE016D5B7F4F4D815E819A01220F93
:100B6000331F240F351F220F331F220F331F260F71
:100B7000371FF9012081318142815381BC01CD01B0
:100B80000E943E2DDC01CB019C01AD01C801B701E3
:100B90000E94DE2ADC01CB018FAB98AFA9AFBAAFC0
:100BA000EBACFCAC0DAD1EADAE014D5B5F4F2D81CE
:100BB0003E81C901880F991F820F931F880F991FCB
:100BC000880F991F840F951F0496FC0180819181E5
:100BD000A281B381BE016D5B7F4F4D815E819A0121
:100BE000220F331F240F351F220F331F220F331FF5
:100BF000260F371F2C5F3F4FF90120813181428141
:100C00005381BC01CD010E943E2DDC01CB019C0132
:100C1000AD01C801B7010E94DE2ADC01CB018BAF18
:100C20009CAFADAFBEAFCE01CF96FC01E080F180AE
:100C300002811381AE014D5B5F4F2D813E81C90161
:100C4000880F991F820F931F880F991F880F991F74
:100C5000840F951F0896FC0180819181A281B38148
:100C6000BE016D5B7F4F4D815E819A01220F331F64
:100C7000240F351F220F331F220F331F260F371F5C
:100C8000285F3F4FF9012081318142815381BC01AE
:100C9000CD010E943E2DDC01CB019C01AD01C801BC
:100CA000B7010E94DE2ADC01CB019E01215C3F4F8F
:100CB000F90180839183A283B3838D819E81019604
:100CC0009E838D8321E08D819E81843191050CF07E
:100CD00020E0222309F024CFF501E080F180028199
:100CE00013816FA878AC89AC9AAC8BA59CA5ADA5F7
:100CF000BEA52BA53CA54DA55EA5BC01CD010E94BE
:100D00003E2DDC01CB01BC01CD0120E030E040EA0A
:100D100051E40E94A82BDC01CB019C01AD01C40170
:100D2000B3010E94DD2ADC01CB01BC01CD0120E032
:100D300030E048E951E40E94A82BDC01CB019C0182
:100D4000AD01C801B7010E94DE2ADC01CB01F5012B
:100D500080839183A283B383F501E480F5800681CB
:100D600017816BAC7CAC8DAC9EAC8FA598A9A9A962
:100D7000BAA92FA538A949A95AA9BC01CD010E9439
:100D80003E2DDC01CB01BC01CD0120E030E040EA8A
:100D900051E40E94A82BDC01CB019C01AD01C401F0
:100DA000B3010E94DD2ADC01CB01BC01CD0120E0B2
:100DB00030E048E951E40E94A82BDC01CB019C0102
:100DC000AD01C801B7010E94DE2ADC01CB01F501AB
:100DD00084839583A683B783F501E084F18402853B
:100DE0001385CE01CF96FC01608071808280938054
:100DF0008BA99CA9ADA9BEA92BA93CA94DA95EA907
:100E0000BC01CD010E943E2DDC01CB01BC01CD0116
:100E100020E030E040EA51E40E94A82BDC01CB0145
:100E20009C01AD01C401B3010E94DD2ADC01CB01AC
:100E3000BC01CD0120E030E048E951E40E94A82B3C
:100E4000DC01CB019C01AD01C801B7010E94DE2A83
:100E5000DC01CB01F50180879187A287B38780E011
:100E600091E00E9452278CE091E00E945227F50108
:100E700080819181A281B381BC01CD0145E00E94B6
:100E8000EF2981E191E00E945227F501848195814B
:100E9000A681B781BC01CD0145E00E94EF2986E122
:100EA00091E00E945227F50180859185A285B38546
:100EB000BC01CD0145E00E94EF298BE191E00E9449
:100EC0005227C501CA54DE4F0FB6F894DEBF0FBEDD
:100ED000CDBFCF91DF911F910F91FF90EF90DF90E9
:100EE000CF90BF90AF909F908F907F906F9008951C
:100EF000EF92FF920F931F93DF93CF9300D000D018
:100F0000CDB7DEB79C838B8384EF91E09A8389838E
:100F10008B819C81FC0180819181A281B381BC0184
:100F2000CD0120E03FEF4FE757E40E94A82BDC0102
:100F3000CB017C018D0189819A81AA2797FDA0951B
:100F4000BA2FBC01CD010E94432C9B01AC01C8010A
:100F5000B7010E943E2DDC01CB012B813C81F901C0
:100F600080839183A283B3838B819C81FC018481E4
:100F70009581A681B781BC01CD0120E03FEF4FE70D
:100F800057E40E94A82BDC01CB017C018D018981F3
:100F90009A81AA2797FDA095BA2FBC01CD010E9486
:100FA000432C9B01AC01C801B7010E943E2DDC011E
:100FB000CB012B813C81F90184839583A683B78380
:100FC0008B819C81FC0180859185A285B385BC01C4
:100FD000CD0120E03FEF4FE757E40E94A82BDC0152
:100FE000CB017C018D0189819A81AA2797FDA0956B
:100FF000BA2FBC01CD010E94432C9B01AC01C8015A
:10100000B7010E943E2DDC01CB012B813C81F9010F
:1010100080879187A287B3870F900F900F900F90D2
:10102000CF91DF911F910F91FF90EF900895AF92B4
:10103000BF92CF92DF92EF92FF920F931F93DF93B5
:10104000CF93CDB7DEB76C970FB6F894DEBF0FBE67
:10105000CDBF5C01C98ADA8AEB8AFC8A0D8B1E8BB4
:101060002F8B388F498F5A8F6B8F7C8F8FE892EC44
:10107000A5E7BCE389839A83AB83BC8380E090E0DF
:10108000DC01F50180839183A283B38380E090E04B
:10109000DC01F50184839583A683B78380E090E02B
:1010A000DC01F50180879187A287B38789899A89B6
:1010B000AB89BC89BC01CD0129813A814B815C811E
:1010C0000E943E2DDC01CB01F50180839183A28338
:1010D000B3838D899E89AF89B88DBC01CD012981EB
:1010E0003A814B815C810E943E2DDC01CB01F501F0
:1010F00084839583A683B783898D9A8DAB8DBC8DB0
:10110000BC01CD0129813A814B815C810E943E2D39
:10111000DC01CB01F50180879187A287B387C501E8
:101120006C960FB6F894DEBF0FBECDBFCF91DF91A6
:101130001F910F91FF90EF90DF90CF90BF90AF90F5
:101140000895AF92BF92CF92DF92EF92FF920F93EA
:101150001F93DF93CF93CDB7DEB7A4970FB6F89464
:10116000DEBF0FBECDBF5C01CE0101960E948A2674
:10117000CE0101960E947807CE014996C980DA8097
:10118000EB80FC800D811E812F81388549855A8531
:101190006B857C850E941708C5019E01275E3F4F25
:1011A0004CE0F90100802F5F3F4FFC010082019667
:1011B00041504423B1F7C501A4960FB6F894DEBFA1
:1011C0000FBECDBFCF91DF911F910F91FF90EF9098
:1011D000DF90CF90BF90AF9008956F927F928F92E3
:1011E0009F92AF92BF92CF92DF92EF92FF920F93B6
:1011F0001F93DF93CF93CDB7DEB7CA5AD1400FB656
:10120000F894DEBF0FBECDBF5C0180E090E0DC0152
:10121000F50180839183A283B38380E090E0DC01B9
:10122000F50184839583A683B78380E090E0DC0199
:10123000F50180879187A287B38780E090E0DC0189
:101240008F8F98A3A9A3BAA380E090E0DC018BA3C1
:101250009CA3ADA3BEA380E090E0DC018FA398A780
:10126000A9A7BAA780E090E0DC018BA79CA7ADA757
:10127000BEA780E090E0DC018FA798ABA9ABBAAB2A
:1012800080E090E0DC018BAB9CABADABBEAB1A82D7
:10129000198244C0CE0107960E948A26CE01079685
:1012A0000E94780729813A81C901880F991F820F0E
:1012B000931F880F991F880F991F9E012F5F3F4F23
:1012C000820F931F0F2EF6E38F2E9924F02D880E98
:1012D000991ECE0181569E4FCF80D884E984FA842E
:1012E0000B851C852D853E854F85588969897A89AE
:1012F0000E9417089E0121563E4FC4014CE0F9019F
:1013000000802F5F3F4FFC01008201964150442333
:10131000B1F789819A8101969A83898321E0898135
:101320009A81843191050CF020E0222309F0B2CF9C
:101330001C821B8274C08F8D98A1A9A1BAA14B8178
:101340005C819A01220F331F240F351F220F331F98
:10135000220F331FAE014F5F5F4F240F351F2A5CF2
:101360003F4FF9012081318142815381BC01CD0180
:101370000E94DE2ADC01CB018F8F98A3A9A3BAA318
:101380008BA19CA1ADA1BEA14B815C819A01220FD2
:10139000331F240F351F220F331F220F331FAE01BF
:1013A0004F5F5F4F240F351F265C3F4FF9012081AF
:1013B000318142815381BC01CD010E94DE2ADC01D2
:1013C000CB018BA39CA3ADA3BEA38FA198A5A9A578
:1013D000BAA54B815C819A01220F331F240F351F60
:1013E000220F331F220F331FAE014F5F5F4F240FB9
:1013F000351F225C3F4FF9012081318142815381A9
:10140000BC01CD010E94DE2ADC01CB018FA398A78D
:10141000A9A7BAA78B819C8101969C838B8321E02D
:101420008B819C81843191050CF020E0222309F00E
:1014300082CF1E821D82CEC0EBA4FCA40DA51EA5EA
:101440002D813E81C901880F991F820F931F880F3C
:10145000991F880F991F9E012F5F3F4F820F931F87
:10146000C696FC0180819181A281B3814D815E810C
:101470009A01220F331F240F351F220F331F220F13
:10148000331FAE014F5F5F4F240F351F2A5C3F4F64
:10149000F9012081318142815381BC01CD010E943B
:1014A0003E2DDC01CB019C01AD01C801B7010E94BA
:1014B000DE2ADC01CB018BA79CA7ADA7BEA7EFA4BA
:1014C000F8A809A91AA92D813E81C901880F991F81
:1014D000820F931F880F991F880F991F9E012F5FFE
:1014E0003F4F820F931FCA96FC0180819181A28198
:1014F000B3814D815E819A01220F331F240F351F66
:10150000220F331F220F331FAE014F5F5F4F240F97
:10151000351F265C3F4FF901208131814281538183
:10152000BC01CD010E943E2DDC01CB019C01AD012F
:10153000C801B7010E94DE2ADC01CB018FA798AB5E
:10154000A9ABBAABEBA8FCA80DA91EA92D813E81C1
:10155000C901880F991F820F931F880F991F880F49
:10156000991F9E012F5F3F4F820F931FCE96FC0164
:1015700080819181A281B3814D815E819A01220F88
:10158000331F240F351F220F331F220F331FAE01CD
:101590004F5F5F4F240F351F225C3F4FF9012081C1
:1015A000318142815381BC01CD010E943E2DDC017D
:1015B000CB019C01AD01C801B7010E94DE2ADC010C
:1015C000CB018BAB9CABADABBEAB8D819E8101964D
:1015D0009E838D8321E08D819E81843191050CF065
:1015E00020E0222309F028CFF501E080F18002817C
:1015F00013816BA47CA48DA49EA48F8D98A1A9A116
:10160000BAA12F8D38A149A15AA1BC01CD010E94D8
:101610003E2DDC01CB01BC01CD0120E030E040EAF1
:1016200051E40E94A82BDC01CB019C01AD01C40157
:10163000B3010E94DD2ADC01CB01BC01CD0120E019
:1016400030E048E951E40E94A82BDC01CB019C0169
:10165000AD01C801B7010E94DE2ADC01CB01F50112
:1016600080839183A283B383F501E480F5800681B2
:1016700017816FA478A889A89AA88BA19CA1ADA175
:10168000BEA12BA13CA14DA15EA1BC01CD010E9438
:101690003E2DDC01CB01BC01CD0120E030E040EA71
:1016A00051E40E94A82BDC01CB019C01AD01C401D7
:1016B000B3010E94DD2ADC01CB01BC01CD0120E099
:1016C00030E048E951E40E94A82BDC01CB019C01E9
:1016D000AD01C801B7010E94DE2ADC01CB01F50192
:1016E00084839583A683B783F501E084F184028522
:1016F00013856BA87CA88DA89EA88FA198A5A9A5E5
:10170000BAA52FA138A549A55AA5BC01CD010E94B3
:101710003E2DDC01CB01BC01CD0120E030E040EAF0
:1017200051E40E94A82BDC01CB019C01AD01C40156
:10173000B3010E94DD2ADC01CB01BC01CD0120E018
:1017400030E048E951E40E94A82BDC01CB019C0168
:10175000AD01C801B7010E94DE2ADC01CB01F50111
:1017600080879187A287B3878DE191E00E945227FD
:101770008CE091E00E945227F50180819181A28145
:10178000B381BC01CD0145E00E94EF2981E191E0E8
:101790000E945227F50184819581A681B781BC0101
:1017A000CD0145E00E94EF2986E191E00E94522799
:1017B000F50180859185A285B385BC01CD0145E009
:1017C0000E94EF298BE191E00E945227C501C65586
:1017D000DE4F0FB6F894DEBF0FBECDBFCF91DF91C5
:1017E0001F910F91FF90EF90DF90CF90BF90AF903F
:1017F0009F908F907F906F9008958F929F92AF925D
:10180000BF92CF92DF92EF92FF920F931F93DF93DD
:10181000CF93CDB7DEB7C455D0400FB6F894DEBF36
:101820000FBECDBFFE01ED5BFF4F91838083CE01E4
:101830008B5B9F4FFC0171836083CE01895B9F4F5F
:10184000FC0151834083CE01875B9F4FFC013183B4
:101850002083CE01855B9F4FFC0111830083CE0165
:10186000835B9F4FFC01F182E082CE01815B9F4F41
:10187000FC01D182C082CE018F5A9F4FFC01B18200
:10188000A082CE018D5A9F4FFC0191828082CE01B1
:10189000CD9663E070E043E050E00E944918CE012D
:1018A000C7969E012D5B3F4FF901408151819E01FA
:1018B000295B3F4FF90120813181BA01A9010E94C2
:1018C0006F19CE018D5B9F4FFC01808191819E013C
:1018D000295C3F4FB9010E94AD18CE01C7960E9406
:1018E0007118CE01C1969E01275B3F4FF9014081DF
:1018F00051819E01235B3F4FF90120813181BA0163
:10190000A9010E946F19CE01875B9F4FFC01808166
:1019100091819E012F5C3F4FB9010E94AD18CE010D
:10192000C1960E947118CE018B969E012B5B3F4F92
:10193000F901408151819E012D5B3F4FF9012081CA
:101940003181BA01A9010E94191ACE01CD969E01DA
:10195000255D3F4FB9010E94AD18CE018B960E94C4
:101960007118CE018F5B9F4FFC0180819181FC013A
:1019700080819181FC0180819181A281B38111E0FC
:10198000BC01CD0120E030E040EA53E40E94332D59
:1019900018160CF010E0112331F1CE018F5B9F4F30
:1019A000FC0180819181FC0100811181CE018F5B5E
:1019B0009F4FFC0180819181FC0180819181FC011C
:1019C00080819181A281B381BC01CD0120E030E012
:1019D00044EB53E40E94DD2ADC01CB01F801808353
:1019E0009183A283B383CE018F5B9F4FFC018081E3
:1019F0009181FC0180819181FC0180819181A28192
:101A0000B38111E0BC01CD0120E030E040EA53E4B5
:101A10000E94A42B88230CF010E0112331F1CE0199
:101A20008F5B9F4FFC0180819181FC0100811181BE
:101A3000CE018F5B9F4FFC0180819181FC018081F1
:101A40009181FC0180819181A281B381BC01CD0192
:101A500020E030E044EB53E40E94DE2ADC01CB01BD
:101A6000F80180839183A283B383CE018F5B9F4F64
:101A7000FC01808191810296FC0180819181049614
:101A8000FC0180819181A281B38111E0BC01CD0173
:101A900020E030E040EA53E40E94332D18160CF0A9
:101AA00010E0112361F1CE018F5B9F4FFC0180811B
:101AB00091810296FC01808191818C010C5F1F4F06
:101AC000CE018F5B9F4FFC01808191810296FC01CA
:101AD000808191810496FC0180819181A281B381F2
:101AE000BC01CD0120E030E044EB53E40E94DD2A4C
:101AF000DC01CB01F80180839183A283B383CE0103
:101B00008F5B9F4FFC01808191810296FC01808157
:101B100091810496FC0180819181A281B38111E0C1
:101B2000BC01CD0120E030E040EA53E40E94A42B48
:101B300088230CF010E0112361F1CE018F5B9F4FE1
:101B4000FC01808191810296FC01808191818C0150
:101B50000C5F1F4FCE018F5B9F4FFC0180819181F5
:101B60000296FC01808191810496FC018081918123
:101B7000A281B381BC01CD0120E030E044EB53E40D
:101B80000E94DE2ADC01CB01F80180839183A283CD
:101B9000B383CE018F5B9F4FFC01808191810496BE
:101BA000FC01808191810896FC0180819181A28154
:101BB000B38111E0BC01CD0120E030E040EA53E404
:101BC0000E94332D18160CF010E0112361F1CE01A4
:101BD0008F5B9F4FFC01808191810496FC01808185
:101BE00091818C01085F1F4FCE018F5B9F4FFC01DD
:101BF000808191810496FC01808191810896FC018D
:101C000080819181A281B381BC01CD0120E030E0CF
:101C100044EB53E40E94DD2ADC01CB01F801808310
:101C20009183A283B383CE018F5B9F4FFC018081A0
:101C300091810496FC01808191810896FC0180814C
:101C40009181A281B38111E0BC01CD0120E030E09F
:101C500040EA53E40E94A42B88230CF010E01123E7
:101C600061F1CE018F5B9F4FFC01808191810496D1
:101C7000FC01808191818C01085F1F4FCE018F5B39
:101C80009F4FFC01808191810496FC0180819181AC
:101C90000896FC0180819181A281B381BC01CD01B4
:101CA00020E030E044EB53E40E94DE2ADC01CB016B
:101CB000F80180839183A283B383CE0185969E0130
:101CC000275B3F4FF901408151819E01255B3F4FCA
:101CD000F90120813181BA01A9010E946F19CE0159
:101CE000815B9F4FFC01808191819E012B5D3F4F65
:101CF000B9010E94AD18CE0185960E947118CE01DF
:101D000049969E01215B3F4FF90120813181B90144
:101D10000E94F71BCE014F969E01275B3F4FF901B2
:101D2000408151819E01275E3F4FBA01A9010E9467
:101D3000C31ACE018F5A9F4FFC01808191819E0171
:101D4000215E3F4FB9010E94AD18CE014F960E940F
:101D50007118CE0149960E947118CE010D969E0110
:101D60002F5A3F4FF901408151819E01235C3F4F23
:101D7000BA01A9010E94C31ACE0143969E012D5BB0
:101D80003F4FF901408151819E01235F3F4FBA01CE
:101D9000A9010E946F19CE018D5B9F4FFC018081CC
:101DA00091819E012D5E3F4FB9010E94AD18CE0179
:101DB00043960E947118CE010D960E947118CE01B3
:101DC0008D5A9F4FFC0140815181CE018F5A9F4F08
:101DD000FC0120813181CE010196BA01A9010E9446
:101DE000191ACE0107969E01275B3F4FF90120810A
:101DF0003181AE014F5F5F4FBA01A9010E94C31A42
:101E0000CE01875B9F4FFC01808191819E01295FFC
:101E10003F4FB9010E94AD18CE0107960E9471187C
:101E2000CE0101960E947118CE01CD960E947118C4
:101E3000CC5ADF4F0FB6F894DEBF0FBECDBFCF91A7
:101E4000DF911F910F91FF90EF90DF90CF90BF90A7
:101E5000AF909F908F9008950F931F93DF93CF9330
:101E6000CDB7DEB72E970FB6F894DEBF0FBECDBF4D
:101E70000E94FF1380E090E0DC018093A601909324
:101E8000A701A093A801B093A90180E090E0DC0134
:101E90008093AA019093AB01A093AC01B093AD01E4
:101EA00080E090E0DC018093AE019093AF01A093BD
:101EB000B001B093B10183E391E00E94522780E02A
:101EC00090E0A8ECB2E489839A83AB83BC836981F8
:101ED0007A818B819C8120E030E04AE755E40E94C2
:101EE0003E2DDC01CB018D839E83AF83B88711E04B
:101EF0006D817E818F81988520E030E040E85FE34E
:101F00000E94A42B88230CF010E0112329F081E01B
:101F100090E09A8789874AC011E06D817E818F8128
:101F2000988520E03FEF4FE757E40E94332D1816C5
:101F30000CF010E0112381F169817A818B819C8101
:101F400020E030E040E251E40E943E2DDC01CB0174
:101F5000BC01CD010E94152CDC01CB019A87898739
:101F600012C080E991E09C878B878B859C858C01D2
:101F7000C8010197F1F78C011C870B8789859A8529
:101F800001979A87898721E089859A85009709F4C6
:101F900020E0222331F717C06D817E818F819885E3
:101FA0000E94152CDC01CB019A87898789859A8547
:101FB0009E878D878D859E858C01F8013197F1F77D
:101FC0008F011E870D870E9402220E945726809152
:101FD000F2019091F301FC012081318180E090E0D9
:101FE000A0E8BFE3F90180839183A283B38380914A
:101FF000F2019091F3010296FC01808191819C0194
:102000002C5F3F4F80E090E0A0E8BFE3F9018083C0
:102010009183A283B3838091F2019091F30104969E
:10202000FC01808191819C01285F3F4F80E090E01E
:10203000A0E8BFE3F90180839183A283B3838091F9
:10204000EC019091ED01FC012081318180E090E074
:10205000A0E8BFE3F90180839183A283B3838091D9
:10206000EC019091ED010296FC01808191819C012F
:102070002C5F3F4F80E090E0A0E8BFE3F901808350
:102080009183A283B3838091EC019091ED0104963A
:10209000FC01808191819C01285F3F4F80E090E0AE
:1020A000A0E8BFE3F90180839183A283B383809189
:1020B000F8019091F901FC012081318180E090E0EC
:1020C000A0E0BFE3F90180839183A283B383809171
:1020D000F8019091F9010296FC01808191819C01A7
:1020E0002C5F3F4F80E090E0A0E0BFE3F9018083E8
:1020F0009183A283B3838091F8019091F9010496B2
:10210000FC01808191819C01285F3F4F8AE097ED1F
:10211000A3E2BCE3F90180839183A283B38380911E
:10212000FE019091FF01FC01208131818AE097ED51
:10213000A3EABBE3F90180839183A283B3838091F7
:10214000FE019091FF010296FC01808191819C012A
:102150002C5F3F4F8AE097EDA3EABBE3F901808350
:102160009183A283B3838091FE019091FF01049635
:10217000FC01808191819C01285F3F4F87E197EBB3
:10218000A1EDB8E3F90180839183A283B3837894AE
:10219000FFCF8F929F92AF92BF92CF92DF92EF923A
:1021A000FF920F931F93DF93CF93CDB7DEB7AA971C
:1021B0000FB6F894DEBF0FBECDBFCE014F960E9482
:1021C000DE0382EB91E09E01215E3F4F4CE0F9017E
:1021D00000802F5F3F4FFC01008201964150442355
:1021E000B1F7CE014F960E94A1088EEB91E09E01BF
:1021F000215E3F4F4CE0F90100802F5F3F4FFC0113
:102200000082019641504423B1F78091E001909102
:10221000E101FC01208131818091B2019091B301F3
:10222000A091B401B091B501F90180839183A2839B
:10223000B3838091E0019091E1010296FC018081DD
:1022400091819C012C5F3F4F8091B6019091B70125
:10225000A091B801B091B901F90180839183A28363
:10226000B3838091E0019091E1010496FC018081AB
:1022700091819C01285F3F4F8091BA019091BB01F1
:10228000A091BC01B091BD01F90180839183A2832B
:10229000B3838091E6019091E701FC0120813181B7
:1022A0008091C2019091C301A091C401B091C50178
:1022B000F90180839183A283B3838091E601909199
:1022C000E7010296FC01808191819C012C5F3F4FC8
:1022D0008091BE019091BF01A091C001B091C10158
:1022E000B058F90180839183A283B3838091E60182
:1022F0009091E7010496FC01808191819C01285F07
:102300003F4F8091C6019091C701A091C801B09143
:10231000C901B058F90180839183A283B383E0900F
:102320002B01F0902C01CE0149962CED31E0B90142
:102330000E947A17CE01439622EE31E0B9010E9445
:102340007A1700912D0110912E01CE010D9624EFE8
:1023500031E0B9010E947A17CE0107962AEF31E0E9
:10236000B9010E947A17C0902F01D0903001A0903F
:102370003101B090320128EE31E0CE010196B90171
:102380000E947A17AE01475E5F4F9E012D5E3F4F60
:10239000DE011D96FE013796C701BA01A901980119
:1023A0008D017F01FE0131964F010E94FD0BCE0190
:1023B00001960E947118CE0107960E947118CE01F5
:1023C0000D960E947118CE0143960E947118CE019D
:1023D00049960E94711886ED91E060E070E040E05F
:1023E00050E00E94CB1BFC01A080B180C280D38052
:1023F00086ED91E061E070E041E050E00E94CB1B8F
:10240000FC01E080F1800281138186ED91E062E0C1
:1024100070E042E050E00E94CB1BFC018081918182
:10242000A281B381A092CA01B092CB01C092CC012B
:10243000D092CD01E092CE01F092CF010093D00175
:102440001093D1018093D2019093D301A093D40132
:10245000B093D5018091CA019091CB01A091CC019C
:10246000B091CD0111E0BC01CD0120E030E044E3AA
:1024700053E40E94332D18160CF010E01123D1F014
:102480008091CA019091CB01A091CC01B091CD0176
:10249000BC01CD0120E030E044EB53E40E94DD2A92
:1024A000DC01CB018093CA019093CB01A093CC01B6
:1024B000B093CD018091CA019091CB01A091CC0144
:1024C000B091CD0111E0BC01CD0120E030E044E34A
:1024D00053EC0E94A42B88230CF010E01123D1F0C0
:1024E0008091CA019091CB01A091CC01B091CD0116
:1024F000BC01CD0120E030E044EB53E40E94DE2A31
:10250000DC01CB018093CA019093CB01A093CC0155
:10251000B093CD018091CE019091CF01A091D001D7
:10252000B091D10111E0BC01CD0120E030E044E3E5
:1025300053E40E94332D18160CF010E01123D1F053
:102540008091CE019091CF01A091D001B091D101A5
:10255000BC01CD0120E030E044EB53E40E94DD2AD1
:10256000DC01CB018093CE019093CF01A093D001E9
:10257000B093D1018091CE019091CF01A091D00173
:10258000B091D10111E0BC01CD0120E030E044E385
:1025900053EC0E94A42B88230CF010E01123D1F0FF
:1025A0008091CE019091CF01A091D001B091D10145
:1025B000BC01CD0120E030E044EB53E40E94DE2A70
:1025C000DC01CB018093CE019093CF01A093D00189
:1025D000B093D1018091D2019091D301A091D40107
:1025E000B091D50111E0BC01CD0120E030E044E321
:1025F00053E40E94332D18160CF010E01123D1F093
:102600008091D2019091D301A091D401B091D501D4
:10261000BC01CD0120E030E044EB53E40E94DD2A10
:10262000DC01CB018093D2019093D301A093D4011C
:10263000B093D5018091D2019091D301A091D401A2
:10264000B091D50111E0BC01CD0120E030E044E3C0
:1026500053EC0E94A42B88230CF010E01123D1F03E
:102660008091D2019091D301A091D401B091D50174
:10267000BC01CD0120E030E044EB53E40E94DE2AAF
:10268000DC01CB018093D2019093D301A093D401BC
:10269000B093D5018AE391E00E9452278EE391E046
:1026A0000E9452278091B2019091B301A091B40190
:1026B000B091B501BC01CD0140E00E94EF298EE34D
:1026C00091E00E9452278091CA019091CB01A09184
:1026D000CC01B091CD01BC01CD0140E00E94EF29B9
:1026E0008EE391E00E9452278091B6019091B7014C
:1026F000A091B801B091B901BC01CD0140E00E94A8
:10270000EF298EE391E00E9452278091CE019091B3
:10271000CF01A091D001B091D101BC01CD0140E029
:102720000E94EF298EE391E00E9452278091BA0126
:102730009091BB01A091BC01B091BD01BC01CD0144
:1027400040E00E94EF298EE391E00E9452278091A1
:10275000D2019091D301A091D401B091D501BC01D7
:10276000CD0140E00E94EF2980E491E00E945227D1
:10277000AA960FB6F894DEBF0FBECDBFCF91DF9102
:102780001F910F91FF90EF90DF90CF90BF90AF908F
:102790009F908F9008951F920F920FB60F92112461
:1027A0002F933F934F935F936F937F938F939F9359
:1027B000AF93BF93EF93FF93DF93CF93CDB7DEB784
:1027C00084E890E02091290130912A01FC013183B5
:1027D000208378940E94C910CF91DF91FF91EF91EF
:1027E000BF91AF919F918F917F916F915F914F9129
:1027F0003F912F910F900FBE0F901F901895DF9370
:10280000CF93CDB7DEB70E940C1488E090E00E9411
:102810001127CF91DF910895DF93CF93CDB7DEB726
:102820008FE690E02FE630E0F90120812E7FFC0159
:10283000208380E890E020E830E0F90120812C7FBF
:10284000FC01208381E890E021E830E0F90120815B
:10285000277EFC0120838FE690E02FE630E0F9012F
:1028600020812D7FFC01208381E890E021E830E089
:10287000F90120812B7FFC01208381E890E021E891
:1028800030E0F90120812260FC01208381E890E0A2
:1028900021E830E0F90120812E7FFC01208384E8CB
:1028A00090E02091290130912A01FC01318320839D
:1028B0008FE690E02FE630E0F90120812160FC01F5
:1028C0002083CF91DF910895DF93CF9300D000D084
:1028D000CDB7DEB79A8389837C836B8389819A81A4
:1028E0008130910509F04FC08B819C812FEF8F3F84
:1028F000920709F048C086ED91E063E070E043E0A4
:1029000050E00E9449188CED91E063E070E043E0F4
:1029100050E00E94491882EE91E063E070E043E0ED
:1029200050E00E94491888EE91E063E070E043E0D7
:1029300050E00E9449188EEE91E063E070E043E0C1
:1029400050E00E94491884EF91E063E070E043E0BA
:1029500050E00E9449188AEF91E063E070E043E0A4
:1029600050E00E94491880E092E063E070E043E0AC
:1029700050E00E94491886E092E063E070E043E096
:1029800050E00E94491889819A81009751F58B8106
:102990009C812FEF8F3F920721F586E092E00E9405
:1029A000711880E092E00E9471188AEF91E00E9415
:1029B000711884EF91E00E9471188EEE91E00E94F0
:1029C000711888EE91E00E94711882EE91E00E94E9
:1029D00071188CED91E00E94711886ED91E00E94D3
:1029E00071180F900F900F900F90CF91DF91089575
:1029F000DF93CF93CDB7DEB781E090E06FEF7FEF4D
:102A00000E946414CF91DF910895DF93CF93CDB7E7
:102A1000DEB780E090E06FEF7FEF0E946414CF910B
:102A2000DF910895EF92FF920F931F93DF93CF935F
:102A300000D000D000D0CDB7DEB79A8389837C83E5
:102A40006B835E834D8389819A81FC0184819581AA
:102A5000A681B7812B813C81F90120853185428592
:102A60005385BC01CD010E943E2DDC01CB017C01D0
:102A70008D0189819A81FC0180859185A285B3852C
:102A80002B813C81F9012481358146815781BC012C
:102A9000CD010E943E2DDC01CB019C01AD01C8019E
:102AA000B7010E94DD2ADC01CB012D813E81F901B5
:102AB00080839183A283B38389819A81FC0180857D
:102AC0009185A285B3852B813C81F90120813181DB
:102AD00042815381BC01CD010E943E2DDC01CB011E
:102AE0007C018D0189819A81FC0180819181A28183
:102AF000B3812B813C81F901208531854285538545
:102B0000BC01CD010E943E2DDC01CB019C01AD0139
:102B1000C801B7010E94DD2ADC01CB012D813E8175
:102B2000F90184839583A683B78389819A81FC0107
:102B300080819181A281B3812B813C81F901248123
:102B4000358146815781BC01CD010E943E2DDC01BB
:102B5000CB017C018D0189819A81FC018481958161
:102B6000A681B7812B813C81F9012081318142818D
:102B70005381BC01CD010E943E2DDC01CB019C01A3
:102B8000AD01C801B7010E94DD2ADC01CB012D8116
:102B90003E81F90180879187A287B38726960FB679
:102BA000F894DEBF0FBECDBFCF91DF911F910F9183
:102BB000FF90EF900895EF92FF920F931F93DF9392
:102BC000CF9300D000D0CDB7DEB79A8389837C83C2
:102BD0006B8389819A81FC0180819181A281B3817B
:102BE0002B813C81F9012081318142815381BC01DB
:102BF000CD010E943E2DDC01CB017C018D0189813C
:102C00009A81FC0184819581A681B7812B813C81C9
:102C1000F9012481358146815781BC01CD010E9493
:102C20003E2DDC01CB019C01AD01C801B7010E9422
:102C3000DE2ADC01CB017C018D0189819A81FC01B6
:102C400080859185A285B3852B813C81F901208502
:102C5000318542855385BC01CD010E943E2DDC01AA
:102C6000CB019C01AD01C801B7010E94DE2ADC0145
:102C7000CB01BC01CD010F900F900F900F90CF9121
:102C8000DF911F910F91FF90EF900895DF93CF9305
:102C900000D000D000D0CDB7DEB79E838D838D816C
:102CA0009E812D813E81B9010E94DB15DC01CB01A3
:102CB000BC01CD010E94C52DDC01CB0189839A8323
:102CC000AB83BC838D819E81FC0180819181A28137
:102CD000B381BC01CD0129813A814B815C810E9485
:102CE000A82BDC01CB012D813E81F90180839183EA
:102CF000A283B3838D819E81FC0184819581A6810D
:102D0000B781BC01CD0129813A814B815C810E9450
:102D1000A82BDC01CB012D813E81F90184839583B1
:102D2000A683B7838D819E81FC0180859185A285D4
:102D3000B385BC01CD0129813A814B815C810E9420
:102D4000A82BDC01CB012D813E81F9018087918781
:102D5000A287B38726960FB6F894DEBF0FBECDBF0D
:102D6000CF91DF9108950F931F93DF93CF9300D0FE
:102D700000D000D0CDB7DEB79E838D838D819E813C
:102D8000FC0180819181880F991F0E945E2E9C0119
:102D90008D819E81FC01358324838D819E81FC0180
:102DA00084819581009721F482E491E00E9452276A
:102DB0001A82198267C08D819E81FC012481358130
:102DC00089819A81880F991F8901080F191F8D81A8
:102DD0009E81FC0182819381880F991F880F991F22
:102DE0000E945E2EF801918380838D819E81FC017B
:102DF0002481358189819A81880F991F820F931FC1
:102E0000FC0180819181009721F488E491E00E9487
:102E100052271C821B8223C08D819E81FC0124814C
:102E2000358189819A81880F991F820F931FFC0138
:102E3000208131818B819C81880F991F880F991F78
:102E4000280F391F80E090E0DC01F9018083918335
:102E5000A283B3838B819C8101969C838B838D811C
:102E60009E81FC012281338141E08B819C8182170C
:102E700093070CF040E0442379F689819A8101960A
:102E80009A8389838D819E81FC012081318141E07B
:102E900089819A81821793070CF040E0442309F05E
:102EA0008ACF26960FB6F894DEBF0FBECDBFCF9166
:102EB000DF911F910F910895DF93CF9300D0CDB78D
:102EC000DEB79A83898389819A8123E030E0FC010F
:102ED0003183208389819A8123E030E0FC013383B0
:102EE000228389819A810E94B3160F900F90CF910F
:102EF000DF9108950F931F93DF93CF93CDB7DEB784
:102F000028970FB6F894DEBF0FBECDBF9E838D838A
:102F100078876F838F819885FC01208131818D8135
:102F20009E81FC01318320838F819885FC01228161
:102F300033818D819E81FC01338322838D819E812B
:102F4000FC0180819181880F991F0E945E2E9C0157
:102F50008D819E81FC01358324838D819E81FC01BE
:102F600084819581009721F482E491E00E945227A8
:102F70001A82198274C08D819E81FC012481358161
:102F800089819A81880F991F8901080F191F8D81E6
:102F90009E81FC0182819381880F991F880F991F60
:102FA0000E945E2EF801918380838D819E81FC01B9
:102FB0002481358189819A81880F991F820F931FFF
:102FC000FC0180819181009721F482E491E00E94CC
:102FD00052271C821B8230C049815A812B813C813F
:102FE0008D819E81BA01A9010E94CB1B9C018F811A
:102FF0009885FC014481558189819A81880F991FA8
:10300000840F951FFC01408151818B819C81880F29
:10301000991F880F991F840F951FFC018081918152
:10302000A281B381F90180839183A283B3838B81D1
:103030009C8101969C838B838D819E81FC012281E2
:10304000338141E08B819C81821793070CF040E033
:10305000442311F689819A8101969A8389838D810F
:103060009E81FC012081318141E089819A81821712
:1030700093070CF040E0442309F07DCF28960FB66B
:10308000F894DEBF0FBECDBFCF91DF911F910F919E
:103090000895DF93CF9300D000D000D0CDB7DEB736
:1030A0009A8389837C836B835E834D8389819A8134
:1030B0002B813C81FC013183208389819A812D8180
:1030C0003E81FC013383228389819A810E94B31659
:1030D00026960FB6F894DEBF0FBECDBFCF91DF911D
:1030E0000895DF93CF9300D000D0CDB7DEB79C8397
:1030F0008B831A82198215C08B819C81FC012481EB
:10310000358189819A81880F991F820F931FFC0155
:10311000808191810E94F82E89819A8101969A83FB
:1031200089838B819C81FC012081318141E08981EF
:103130009A81821793070CF040E04423E9F68B81D3
:103140009C81FC01848195810E94F82E0F900F9044
:103150000F900F90CF91DF910895DF93CF93CDB76C
:10316000DEB72A970FB6F894DEBF0FBECDBF9887A3
:103170008F837A87698789859A85FC0120813181CF
:103180008F819885FC013183208389859A85FC0194
:10319000228133818F819885FC01338322831A82B7
:1031A000198215C08F819885FC0124813581898120
:1031B0009A81880F991F820F931FFC018081918152
:1031C0000E94F82E89819A8101969A8389838F8142
:1031D0009885FC012081318141E089819A818217A3
:1031E00093070CF040E04423E9F68F819885FC01B9
:1031F000848195810E94F82E8F8198850E94B31654
:103200001C821B8252C01E821D823BC08F8198850A
:10321000FC01248135818B819C81880F991F820F4D
:10322000931FFC01208131818D819E81880F991F20
:10323000880F991F280F391F89859A85FC014481C1
:1032400055818B819C81880F991F840F951FFC01EC
:10325000408151818D819E81880F991F880F991F10
:10326000840F951FFC0180819181A281B381F901B6
:1032700080839183A283B3838D819E8101969E83F7
:103280008D838F819885FC012281338141E08D817E
:103290009E81821793070CF040E0442309F0B6CFDB
:1032A0008B819C8101969C838B838F819885FC0107
:1032B0002081318141E08B819C81821793070CF042
:1032C00040E0442309F09FCF8F8198852A960FB65E
:1032D000F894DEBF0FBECDBFCF91DF910895EF927E
:1032E000FF920F931F93DF93CF93CDB7DEB72E9747
:1032F0000FB6F894DEBF0FBECDBF8C017C876B8705
:103300005E874D87C8010E945C171A82198273C0BC
:103310001C821B825CC0C801FC012481358189812B
:103320009A81880F991F820F931FFC0120813181A0
:103330008B819C81880F991F880F991F7901E80E56
:10334000F91E8B859C85FC012481358189819A81B8
:10335000880F991F820F931FFC01208131818B817F
:103360009C81880F991F880F991F820F931FFC0162
:1033700080819181A281B3812D853E85F9014481AF
:10338000558129813A81220F331F240F351FF901FE
:10339000408151812B813C81220F331F220F331F2B
:1033A000240F351FF9012081318142815381BC01F5
:1033B000CD010E94DE2ADC01CB01F70180839183DD
:1033C000A283B3838B819C8101969C838B838B85A5
:1033D0009C85FC012281338141E08B819C81821795
:1033E00093070CF040E0442309F095CF89819A813E
:1033F00001969A8389838B859C85FC01208131818C
:1034000041E089819A81821793070CF040E04423C0
:1034100009F07ECFC801C8012E960FB6F894DEBF22
:103420000FBECDBFCF91DF911F910F91FF90EF9015
:103430000895EF92FF920F931F93DF93CF93CDB731
:10344000DEB72E970FB6F894DEBF0FBECDBF8C014E
:103450007C876B875E874D87C8010E945C171A8244
:10346000198273C01C821B825CC0C801FC012481CC
:10347000358189819A81880F991F820F931FFC01E2
:10348000208131818B819C81880F991F880F991F22
:103490007901E80EF91E8B859C85FC01248135811C
:1034A00089819A81880F991F820F931FFC012081C7
:1034B00031818B819C81880F991F880F991F820F02
:1034C000931FFC0180819181A281B3812D853E856E
:1034D000F9014481558129813A81220F331F240F3C
:1034E000351FF901408151812B813C81220F331F0F
:1034F000220F331F240F351FF901208131814281B2
:103500005381BC01CD010E94DD2ADC01CB01F70112
:1035100080839183A283B3838B819C8101969C835A
:103520008B838B859C85FC012281338141E08B81DB
:103530009C81821793070CF040E0442309F095CF5B
:1035400089819A8101969A8389838B859C85FC0168
:103550002081318141E089819A81821793070CF0A3
:1035600040E0442309F07ECFC801C8012E960FB673
:10357000F894DEBF0FBECDBFCF91DF911F910F91A9
:10358000FF90EF900895AF92BF92CF92DF92EF92AB
:10359000FF920F931F93DF93CF93CDB7DEB7609762
:1035A0000FB6F894DEBF0FBECDBF8C017E876D874E
:1035B000588B4F87C8010E945C171C821B82C9C0B0
:1035C0001E821D82B2C01A821982C801FC012481A8
:1035D00035818B819C81880F991F820F931FFC017D
:1035E000208131818D819E81880F991F880F991FBD
:1035F000280F391F80E090E0DC01F901808391837E
:10360000A283B3837EC0C801FC01248135818B81F4
:103610009C81880F991F820F931FFC0120813181AB
:103620008D819E81880F991F880F991F5901A80EBF
:10363000B91EC801FC01248135818B819C81880FD2
:10364000991F820F931FFC01208131818D819E8102
:10365000880F991F880F991F820F931FFC01C0804C
:10366000D180E280F3808D859E85FC0124813581A7
:103670008B819C81880F991F820F931FFC012081F1
:10368000318189819A81880F991F880F991F820F34
:10369000931FFC0180819181A281B3812F8538899C
:1036A000F9014481558129813A81220F331F240F6A
:1036B000351FF901408151812D813E81220F331F39
:1036C000220F331F240F351FF901208131814281E0
:1036D0005381BC01CD010E943E2DDC01CB019C0138
:1036E000AD01C701B6010E94DE2ADC01CB01F50164
:1036F00080839183A283B38389819A8101969A837F
:1037000089838D859E85FC012281338141E08981F9
:103710009A81821793070CF040E0442309F073CF9D
:103720008D819E8101969E838D838F859889FC0172
:103730002281338141E08D819E81821793070CF0B5
:1037400040E0442309F03FCF8B819C8101969C830C
:103750008B838D859E85FC012081318141E08B81A9
:103760009C81821793070CF040E0442309F028CF96
:10377000C801C80160960FB6F894DEBF0FBECDBF7A
:10378000CF91DF911F910F91FF90EF90DF90CF903D
:10379000BF90AF900895DF93CF9300D000D000D0BA
:1037A000CDB7DEB79A8389837C836B835E834D8339
:1037B00089819A81FC01248135818B819C81880FCC
:1037C000991F820F931FFC01208131818D819E8181
:1037D000880F991F880F991F820F931F26960FB687
:1037E000F894DEBF0FBECDBFCF91DF910895AF92A9
:1037F000BF92CF92DF92EF92FF920F931F93DF93CE
:10380000CF93CDB7DEB72C970FB6F894DEBF0FBEBF
:10381000CDBF8C017C876B87C80163E070E043E01B
:1038200050E00E9449188B859C85FC01848195811C
:10383000FC0180819181FC0180819181A281B38111
:103840002B853C85F901248135812E5F3F4FF9019D
:10385000208131812C5F3F4FF901208131814281EC
:103860005381BC01CD010E943E2DDC01CB012B8593
:103870003C85F901248135812C5F3F4FF90120817E
:103880003181285F3F4FF90120813181428153818D
:10389000BC01CD010E943E2DDC01CB016C017D01FC
:1038A0008B859C85FC0184819581FC0180819181BF
:1038B0000496FC0180819181A281B3812B853C8596
:1038C000F901248135812E5F3F4FF901208131813B
:1038D000285F3F4FF9012081318142815381BC0132
:1038E000CD010E943E2DDC01CB012B853C85F901E9
:1038F000248135812C5F3F4FF90120813181F9010D
:103900002081318142815381BC01CD010E943E2D35
:10391000DC01CB019C01AD01C701B6010E94DE2A8A
:10392000DC01CB016C017D018B859C85FC018481D0
:103930009581FC01808191810896FC0180819181B3
:10394000A281B3812B853C85F901248135812E5FCD
:103950003F4FF90120813181F9012081318142817C
:103960005381BC01CD010E943E2DDC01CB012B8592
:103970003C85F901248135812C5F3F4FF90120817D
:1039800031812C5F3F4FF901208131814281538188
:10399000BC01CD010E943E2DDC01CB019C01AD019B
:1039A000C701B6010E94DE2ADC01CB016C017D015A
:1039B0008B859C85FC0184819581FC0180819181AE
:1039C0000896FC0180819181A281B3812B853C8581
:1039D000F901248135812E5F3F4FF901208131812A
:1039E0002C5F3F4FF9012081318142815381BC011D
:1039F000CD010E943E2DDC01CB012B853C85F901D8
:103A0000248135812C5F3F4FF90120813181F901FB
:103A10002081318142815381BC01CD010E943E2D24
:103A2000DC01CB019C01AD01C701B6010E94DD2A7A
:103A3000DC01CB016C017D018B859C85FC018481BF
:103A400095810296FC01808191810896FC0180811C
:103A50009181A281B3812B853C85F9012481358137
:103A60002C5F3F4FF901208131812C5F3F4FF901DD
:103A70002081318142815381BC01CD010E943E2DC4
:103A8000DC01CB012B853C85F90124813581F901CD
:103A900020813181F9012081318142815381BC0132
:103AA000CD010E943E2DDC01CB019C01AD01C7017F
:103AB000B6010E94DD2ADC01CB016C017D018B8502
:103AC0009C85FC01848195810496FC018081918113
:103AD0000896FC0180819181A281B3812B853C8570
:103AE000F90124813581F901208131812C5F3F4F1B
:103AF000F9012081318142815381BC01CD010E94B5
:103B00003E2DDC01CB012B853C85F90124813581DB
:103B10002E5F3F4FF90120813181F90120813181F0
:103B200042815381BC01CD010E943E2DDC01CB01BD
:103B30009C01AD01C701B6010E94DD2ADC01CB0169
:103B400089839A83AB83BC83C801FC0184819581FE
:103B5000FC01A080B1808B859C85FC0184819581CE
:103B60000296FC01808191810496FC018081918103
:103B7000A281B3812B853C85F901248135812C5F9D
:103B80003F4FF90120813181285F3F4FF9012081AA
:103B9000318142815381BC01CD010E943E2DDC0167
:103BA000CB016C017D018B859C85FC018481958115
:103BB0000296FC01808191810896FC0180819181AF
:103BC000A281B3812B853C85F901248135812C5F4D
:103BD0003F4FF901208131812C5F3F4FF901208156
:103BE000318142815381BC01CD010E943E2DDC0117
:103BF000CB019C01AD01C701B6010E94DD2ADC01A9
:103C0000CB01BC01CD0129813A814B815C810E94AD
:103C1000A82BDC01CB01F50180839183A283B383C0
:103C2000C801FC0184819581FC0180819181AA24D5
:103C3000BB246894A2F8A80EB91E8B859C85FC0154
:103C400084819581FC01808191810896FC018081AD
:103C50009181A281B3812B853C85F9012481358135
:103C60002C5F3F4FF901208131812C5F3F4FF901DB
:103C70002081318142815381BC01CD010E943E2DC2
:103C8000DC01CB016C017D018B859C85FC0184816D
:103C90009581FC01808191810496FC018081918154
:103CA000A281B3812B853C85F901248135812C5F6C
:103CB0003F4FF90120813181285F3F4FF901208179
:103CC000318142815381BC01CD010E943E2DDC0136
:103CD000CB019C01AD01C701B6010E94DD2ADC01C8
:103CE000CB01BC01CD0129813A814B815C810E94CD
:103CF000A82BDC01CB01F50180839183A283B383E0
:103D0000C801FC0184819581FC0180819181AA24F4
:103D1000BB246894A3F8A80EB91E8B859C85FC0172
:103D200084819581FC01808191810496FC018081D0
:103D30009181A281B3812B853C85F9012481358154
:103D40002C5F3F4FF901208131812C5F3F4FF901FA
:103D50002081318142815381BC01CD010E943E2DE1
:103D6000DC01CB016C017D018B859C85FC0184818C
:103D700095810296FC01808191810496FC018081ED
:103D80009181A281B3812B853C85F9012481358104
:103D90002C5F3F4FF90120813181F9012081318170
:103DA00042815381BC01CD010E943E2DDC01CB013B
:103DB0009C01AD01C701B6010E94DD2ADC01CB01E7
:103DC000BC01CD0129813A814B815C810E94A82BE5
:103DD000DC01CB01F50180839183A283B383C80109
:103DE000FC01848195810296FC01A080B1808B85C5
:103DF0009C85FC01848195810296FC0180819181E2
:103E00000896FC0180819181A281B3812B853C853C
:103E1000F901248135812C5F3F4FF90120813181E7
:103E2000F9012081318142815381BC01CD010E9481
:103E30003E2DDC01CB016C017D018B859C85FC0155
:103E4000848195810296FC0180819181FC018081B1
:103E50009181A281B3812B853C85F9012481358133
:103E60002C5F3F4FF90120813181285F3F4FF901DD
:103E70002081318142815381BC01CD010E943E2DC0
:103E8000DC01CB019C01AD01C701B6010E94DD2A16
:103E9000DC01CB01BC01CD0129813A814B815C81E0
:103EA0000E94A82BDC01CB01F50180839183A283C2
:103EB000B383C801FC01848195810296FC01808155
:103EC0009181AA24BB246894A2F8A80EB91E8B8500
:103ED0009C85FC0184819581FC0180819181FC019C
:103EE00080819181A281B3812B853C85F901248158
:103EF00035812C5F3F4FF90120813181285F3F4F91
:103F0000F9012081318142815381BC01CD010E94A0
:103F10003E2DDC01CB016C017D018B859C85FC0174
:103F200084819581FC01808191810896FC018081CA
:103F30009181A281B3812B853C85F9012481358152
:103F40002C5F3F4FF90120813181F90120813181BE
:103F500042815381BC01CD010E943E2DDC01CB0189
:103F60009C01AD01C701B6010E94DD2ADC01CB0135
:103F7000BC01CD0129813A814B815C810E94A82B33
:103F8000DC01CB01F50180839183A283B383C80157
:103F9000FC01848195810296FC0180819181AA2493
:103FA000BB246894A3F8A80EB91E8B859C85FC01E0
:103FB00084819581FC01808191810896FC0180813A
:103FC0009181A281B3812B853C85F90124813581C2
:103FD0002E5F3F4FF90120813181F901208131812C
:103FE00042815381BC01CD010E943E2DDC01CB01F9
:103FF0006C017D018B859C85FC0184819581FC0190
:1040000080819181FC0180819181A281B3812B8586
:104010003C85F901248135812E5F3F4FF9012081D4
:104020003181285F3F4FF9012081318142815381E5
:10403000BC01CD010E943E2DDC01CB019C01AD01F4
:10404000C701B6010E94DD2ADC01CB01BC01CD0114
:1040500029813A814B815C810E94A82BDC01CB0134
:10406000F50180839183A283B383C801FC0184811D
:1040700095810496FC01A080B1808B859C85FC0114
:10408000848195810296FC0180819181FC0180816F
:104090009181A281B3812B853C85F90124813581F1
:1040A0002C5F3F4FF901208131812C5F3F4FF90197
:1040B0002081318142815381BC01CD010E943E2D7E
:1040C000DC01CB016C017D018B859C85FC01848129
:1040D00095810296FC01808191810496FC0180818A
:1040E0009181A281B3812B853C85F90124813581A1
:1040F0002C5F3F4FF90120813181F901208131810D
:1041000042815381BC01CD010E943E2DDC01CB01D7
:104110009C01AD01C701B6010E94DD2ADC01CB0183
:10412000BC01CD0129813A814B815C810E94A82B81
:10413000DC01CB01F50180839183A283B383C801A5
:10414000FC01848195810496FC0180819181AA24DF
:10415000BB246894A2F8A80EB91E8B859C85FC012F
:1041600084819581FC01808191810496FC0180818C
:104170009181A281B3812B853C85F9012481358110
:104180002C5F3F4FF90120813181F901208131817C
:1041900042815381BC01CD010E943E2DDC01CB0147
:1041A0006C017D018B859C85FC0184819581FC01DE
:1041B00080819181FC0180819181A281B3812B85D5
:1041C0003C85F901248135812C5F3F4FF901208125
:1041D00031812C5F3F4FF901208131814281538130
:1041E000BC01CD010E943E2DDC01CB019C01AD0143
:1041F000C701B6010E94DD2ADC01CB01BC01CD0163
:1042000029813A814B815C810E94A82BDC01CB0182
:10421000F50180839183A283B383C801FC0184816B
:1042200095810496FC0180819181AA24BB24689425
:10423000A3F8A80EB91E8B859C85FC01848195810D
:10424000FC0180819181FC0180819181A281B381F7
:104250002B853C85F901248135812E5F3F4FF90183
:10426000208131812C5F3F4FF901208131814281D2
:104270005381BC01CD010E943E2DDC01CB016C01BC
:104280007D018B859C85FC0184819581FC01808169
:1042900091810496FC0180819181A281B3812B855B
:1042A0003C85F901248135812E5F3F4FF901208142
:1042B0003181F9012081318142815381BC01CD01DD
:1042C0000E943E2DDC01CB019C01AD01C701B6016E
:1042D0000E94DD2ADC01CB01BC01CD0129813A819C
:1042E0004B815C810E94A82BDC01CB01F50180830E
:1042F0009183A283B383C801C8012C960FB6F894AA
:10430000DEBF0FBECDBFCF91DF911F910F91FF9008
:10431000EF90DF90CF90BF90AF900895DF93CF9351
:1043200000D000D000D0CDB7DEB79E838D838FE460
:1043300091E00E9452271A8219824CC081E591E0D7
:104340000E9452271C821B822AC08D819E81FC0103
:104350002481358189819A81880F991F820F931F4B
:10436000FC01208131818B819C81880F991F880FEE
:10437000991F820F931FFC0180819181A281B381DB
:10438000BC01CD0142E050E00E94182985E591E092
:104390000E9452278B819C8101969C838B838D8107
:1043A0009E81FC012281338141E08B819C818217B7
:1043B00093070CF040E0442341F688E591E00E9429
:1043C00052278FE491E00E94522789819A810196B9
:1043D0009A8389838D819E81FC012081318141E016
:1043E00089819A81821793070CF040E0442309F0F9
:1043F000A5CF26960FB6F894DEBF0FBECDBFCF91E6
:10440000DF910895DF93CF93CDB7DEB787E290E0D9
:10441000FC01108288E290E020E3FC01208389EB1C
:1044200090E0FC01108288EB90E02CE0FC012083FE
:104430000E948B0080E30E94A20080E20E94A20002
:1044400087E20E94A2000E94F7000E948B0080E396
:104450000E94A20083E20E94A20080E00E94A200CB
:104460000E94F7000E948B008CE30E94A20082E071
:104470000E94A20080E00E94A2000E94F700CF915B
:10448000DF910895DF93CF93CDB7DEB760970FB676
:10449000F894DEBF0FBECDBF9E878D87788B6F8768
:1044A0000E948B0080E30E94A20088EA0E94A20082
:1044B0000E948B0081E30E94A2000E94C1008983B8
:1044C0000E94C1008A830E94C1008B830E94C100A8
:1044D0008C830E94C1008D830E94DC008E830E9429
:1044E000F7000E948B008CE30E94A20083E00E94F0
:1044F000A2000E948B008DE30E94A2000E94C100D6
:104500008F830E94C10088870E94C10089870E9412
:10451000C1008A870E94C1008B870E94DC008C87C3
:104520000E94F7008A81882F90E0382F2227898106
:10453000882F90E0822B932BAA2797FDA095BA2F66
:10454000BC01CD010E94432CDC01CB012D853E85B1
:10455000F90180839183A283B3838C81882F90E0BB
:10456000382F22278B81882F90E0822B932BAA272C
:1045700097FDA095BA2FBC01CD010E94432CDC0110
:10458000CB012D853E85F90184839583A683B7836E
:104590008E81882F90E0382F22278D81882F90E000
:1045A000822B932BAA2797FDA095BA2FBC01CD0192
:1045B0000E94432CDC01CB012D853E85F9018087CB
:1045C0009187A287B3878F81882F90E0382F222789
:1045D0008885882F90E0822B932BAA2797FDA095A2
:1045E000BA2FBC01CD010E94432CDC01CB012F85E9
:1045F0003889F90180839183A283B3838985882FC9
:1046000090E0382F22278A85882F90E0822B932BE9
:10461000AA2797FDA095BA2FBC01CD010E94432C7B
:10462000DC01CB012F853889F90184839583A6832A
:10463000B7838B85882F90E0382F22278C85882F91
:1046400090E0822B932BAA2797FDA095BA2FBC014F
:10465000CD010E94432CDC01CB012F853889F90163
:1046600080879187A287B38760960FB6F894DEBFE4
:104670000FBECDBFCF91DF9108951F93DF93CF93EE
:10468000CDB7DEB7E0970FB6F894DEBF0FBECDBF53
:1046900080E090E0DC0189839A83AB83BC8380E077
:1046A00090E0DC018D839E83AF83B88780E090E04B
:1046B000DC0189879A87AB87BC8780E090E0DC01CA
:1046C0008D879E87AF87B88B80E090E0DC01898B77
:1046D0009A8BAB8BBC8B80E090E0DC018D8B9E8B4A
:1046E000AF8BB88F80E090E0DC01898F9A8FAB8F21
:1046F000BC8F80E090E0DC018D8F9E8FAF8FB8A3E0
:1047000080E090E0DC0189A39AA3ABA3BCA380E086
:1047100090E0DC018DA39EA3AFA3B8A780E090E05A
:10472000DC0189A79AA7ABA7BCA780E090E0DC01D9
:104730008DA79EA7AFA7B8AB9E01235F3F4FCE01C9
:104740000196B9010E9442228D859E85AF85B88968
:10475000298D3A8D4B8D5C8D11E0BC01CD010E94FD
:10476000A42B88230CF010E0112341F08D859E8549
:10477000AF85B889898F9A8FAB8FBC8F89899A89C9
:10478000AB89BC892D8D3E8D4F8D58A111E0BC01A8
:10479000CD010E94A42B88230CF010E0112341F0DE
:1047A00089899A89AB89BC898D8F9E8FAF8FB8A379
:1047B0008D899E89AF89B88D29A13AA14BA15CA1B1
:1047C00011E0BC01CD010E94A42B88230CF010E065
:1047D000112341F08D899E89AF89B88D89A39AA351
:1047E000ABA3BCA38D859E85AF85B8892DA13EA1C5
:1047F0004FA158A511E0BC01CD010E94332D181620
:104800000CF010E0112341F08D859E85AF85B889AD
:104810008DA39EA3AFA3B8A789899A89AB89BC89C8
:1048200029A53AA54BA55CA511E0BC01CD010E94CC
:10483000332D18160CF010E0112341F089899A8964
:10484000AB89BC8989A79AA7ABA7BCA78D899E898C
:10485000AF89B88D2DA53EA54FA558A911E0BC0183
:10486000CD010E94332D18160CF010E0112341F0F9
:104870008D899E89AF89B88D8DA79EA7AFA7B8AB4C
:1048800082E791E00E94522789E791E00E94522737
:10489000898D9A8DAB8DBC8DBC01CD010E94102CF1
:1048A000DC01CB010E9475278DE791E00E94522721
:1048B0008D8D9E8DAF8DB8A1BC01CD010E94102CB5
:1048C000DC01CB010E94752782E891E00E9452270B
:1048D00089A19AA1ABA1BCA1BC01CD010E94102C61
:1048E000DC01CB010E94752787E891E00E945227E6
:1048F0008CE891E00E94522789E791E00E945227BC
:104900008DA19EA1AFA1B8A5BC01CD010E94102C24
:10491000DC01CB010E9475278DE791E00E945227B0
:1049200089A59AA5ABA5BCA5BC01CD010E94102C00
:10493000DC01CB010E94752782E891E00E9452279A
:104940008DA59EA5AFA5B8A9BC01CD010E94102CD4
:10495000DC01CB010E94752783E991E00E94522778
:10496000EBCEEF92FF920F931F93DF93CF93CDB7D0
:10497000DEB7A2970FB6F894DEBF0FBECDBF9E8FF5
:104980008D8F78A36F8F5AA349A38F8D98A1FC01B7
:1049900080819181A281B38120915A0130915B0184
:1049A00040915C0150915D01BC01CD010E94DD2A66
:1049B000DC01CB017C018D01809166019091670142
:1049C000A0916801B091690120915A0130915B0179
:1049D00040915C0150915D01BC01CD010E94DD2A36
:1049E000DC01CB019C01AD01C801B7010E94A82BDD
:1049F000DC01CB019C01AD01CA01B9010E94DE2A94
:104A0000DC01CB01BC01CD0120E030E040E85FE3F8
:104A10000E94DD2ADC01CB012F8D38A1F9018083B2
:104A20009183A283B3838F8D98A1FC0184819581AA
:104A3000A681B78120915E0130915F0140916001B4
:104A400050916101BC01CD010E94DD2ADC01CB0146
:104A50007C018D0180916A0190916B01A0916C01A4
:104A6000B0916D0120915E0130915F014091600134
:104A700050916101BC01CD010E94DD2ADC01CB0116
:104A80009C01AD01C801B7010E94A82BDC01CB013C
:104A90009C01AD01CA01B9010E94DE2ADC01CB01F3
:104AA000BC01CD0120E030E040E85FE30E94DD2A58
:104AB000DC01CB012F8D38A1F90184839583A68376
:104AC000B7838F8D98A1FC0180859185A285B385E0
:104AD0002091620130916301409164015091650120
:104AE000BC01CD010E94DD2ADC01CB017C018D01DE
:104AF00080916E0190916F01A0917001B091710150
:104B000020916201309163014091640150916501EF
:104B1000BC01CD010E94DD2ADC01CB019C01AD016D
:104B2000C801B7010E94A82BDC01CB019C01AD019B
:104B3000CA01B9010E94DE2ADC01CB01BC01CD0112
:104B400020E030E040E85FE30E94DD2ADC01CB0199
:104B50002F8D38A1F90180879187A287B3878F8D28
:104B600098A14D8D5E8D9E012B5F3F4FBA01A9012B
:104B70000E941215CE0105960E9446168D8D9E8DBF
:104B8000AE014B5F5F4F9E012F5E3F4FBA01A901FF
:104B90000E941215CE0141960E944616CE0105963E
:104BA00029A13AA1B9010E94DB157B018C01CE013C
:104BB000419629A13AA1B9010E94DB159B01AC01E4
:104BC000C801B7010E94512BDC01CB01BC01CD0112
:104BD00020E030E044E353E40E943E2DDC01CB01B1
:104BE000BC01CD012BED3FE049E450E40E94A82B2D
:104BF000DC01CB01BC01CD010E94A12DDC01CB0168
:104C000089839A83AB83BC8311E069817A818B812C
:104C10009C8120E030E044E353E40E94332D1816D9
:104C20000CF010E0112381F069817A818B819C81E5
:104C300020E030E044EB53E40E94DD2ADC01CB01AC
:104C400089839A83AB83BC8311E069817A818B81EC
:104C50009C8120E030E044E353EC0E94A42B8823A5
:104C60000CF010E0112381F069817A818B819C81A5
:104C700020E030E044EB53E40E94DE2ADC01CB016B
:104C800089839A83AB83BC8389819A81AB81BC8100
:104C9000BC01CD01A2960FB6F894DEBF0FBECDBF0A
:104CA000CF91DF911F910F91FF90EF900895DF93C7
:104CB000CF93CDB7DEB787E290E0FC01108288E2A7
:104CC00090E020E3FC01208389EB90E0FC0110825E
:104CD00088EB90E02CE0FC0120830E948B0082EDA9
:104CE0000E94A20080E20E94A2008FEB0E94A2001C
:104CF0000E94F7000E948B0082ED0E94A20083E2D6
:104D00000E94A20080E10E94A2000E94F700CF91C1
:104D1000DF910895DF93CF93CDB7DEB728970FB615
:104D2000F894DEBF0FBECDBF98878F830E948B00A3
:104D300082ED0E94A20088EA0E94A2000E948B00DD
:104D400083ED0E94A2000E94C10089830E94C100DD
:104D50008A830E94C1008B830E94C1008C830E94C1
:104D6000C1008D830E94DC008E830E94F7008A813F
:104D7000882F90E0382F22278981882F90E0822B7E
:104D8000932BAA2797FDA095BA2FBC01CD010E94B5
:104D9000432CDC01CB012F813885F901808391837D
:104DA000A283B3838C81882F90E0382F22278B81B8
:104DB000882F90E0822B932BAA2797FDA095BA2FDE
:104DC000BC01CD010E94432CDC01CB012F81388531
:104DD000F90184839583A683B7838E81882F90E021
:104DE000382F22278D81882F90E0822B932BAA27A2
:104DF00097FDA095BA2FBC01CD010E94432CDC0188
:104E0000CB012F813885F90180879187A287B387ED
:104E100028960FB6F894DEBF0FBECDBFCF91DF91BD
:104E20000895DF93CF9300D0CDB7DEB79A838983FF
:104E300085EC90E029813A81232F3327FC012083E0
:104E400084EC90E02981FC01208381EC90E028E152
:104E5000FC01208382EC90E02EE0FC0120830F9087
:104E60000F90CF91DF910895DF93CF930F92CDB73D
:104E7000DEB78983000080EC90E0FC018081882F00
:104E800090E08072907021E0009709F020E02223EA
:104E900091F786EC90E02981FC0120830F90CF915F
:104EA000DF910895DF93CF9300D0CDB7DEB79A831B
:104EB00089830CC089819A81FC01208189819A8132
:104EC00001969A838983822F0E94342789819A814F
:104ED000FC01908181E0992309F480E0882351F757
:104EE0000F900F90CF91DF910895DF93CF93CDB7BF
:104EF000DEB72C970FB6F894DEBF0FBECDBF9C87F0
:104F00008B8700D000D000D08DB79EB701969E0150
:104F10002F5F3F4FFC013183208326E931E0FC0104
:104F2000338322832B853C85FC01358324830E94B7
:104F3000912F8DB79EB706960FB6F8949EBF0FBE01
:104F40008DBFCE0101960E9452272C960FB6F89481
:104F5000DEBF0FBECDBFCF91DF910895DF93CF931A
:104F6000CDB7DEB7000080EC90E0FC018081809539
:104F7000881F8827881F8823B1F786EC90E0FC0102
:104F80008081CF91DF910895DF93CF930F92CDB7BA
:104F9000DEB7898389810E9434270F90CF91DF91FA
:104FA0000895DF93CF9300D0CDB7DEB79A8389837E
:104FB0000CC089819A81FC01208189819A810196A6
:104FC0009A838983822F0E94C42789819A81FC0158
:104FD000908181E0992309F480E0882351F70F90B4
:104FE0000F90CF91DF910895DF93CF9300D000D041
:104FF000CDB7DEB79A8389837C836B830CC08981AC
:105000009A81FC01208189819A8101969A83898302
:10501000822F0E94C42721E08B819C81009709F494
:1050200020E08B819C8101979C838B83222339F71D
:105030000F900F900F900F90CF91DF910895DF9315
:10504000CF9300D0CDB7DEB79A83898389819A81C7
:105050000E94D1270F900F90CF91DF910895DF9399
:10506000CF9300D00F92CDB7DEB789837B836A835D
:105070008981882F90E0A0E0B0E02A813B81BC01CB
:10508000CD01A9010E94A0280F900F900F90CF9101
:10509000DF910895DF93CF9300D00F92CDB7DEB7A5
:1050A00089837B836A838981882F90E0A0E0B0E0C8
:1050B0002A813B81BC01CD01A9010E94F0280F90FB
:1050C0000F900F90CF91DF910895DF93CF9300D091
:1050D00000D0CDB7DEB79A8389837C836B838981C7
:1050E0009A81AA2797FDA095BA2F2B813C81BC01FC
:1050F000CD01A9010E94A0280F900F900F900F9052
:10510000CF91DF910895DF93CF9300D000D0CDB73A
:10511000DEB79A8389837C836B8389819A81CC01F2
:10512000A0E0B0E02B813C81BC01CD01A9010E942F
:10513000F0280F900F900F900F90CF91DF9108956E
:10514000DF93CF9300D000D000D0CDB7DEB7698316
:105150007A838B839C835E834D838D819E810097B0
:1051600021F489810E94C42732C08D819E818A30BA
:10517000910519F589819A81AB81BC81BB239CF48F
:1051800089E991E00E941F2889819A81AB81BC81C5
:10519000B095A095909581959F4FAF4FBF4F898354
:1051A0009A83AB83BC8389819A81AB81BC81BC012A
:1051B000CD014AE00E9438290AC089819A81AB81D9
:1051C000BC812D81BC01CD01422F0E943829269639
:1051D0000FB6F894DEBF0FBECDBFCF91DF9108951B
:1051E000DF93CF9300D000D000D0CDB7DEB7698376
:1051F0007A838B839C835E834D838D819E81009710
:1052000021F489810E94C4270AC02D8189819A8155
:10521000AB81BC81BC01CD01422F0E94382926966A
:105220000FB6F894DEBF0FBECDBFCF91DF910895CA
:10523000DF93CF9300D000D000D0CDB7DEB7698325
:105240007A838B839C835E834D832D8189819A81B0
:10525000AB81BC81BC01CD01422F0E94EF29269673
:105260000FB6F894DEBF0FBECDBFCF91DF9108958A
:10527000DF93CF93CDB7DEB7A9970FB6F894DEBF13
:105280000FBECDBF6DA37EA38FA398A749A7198298
:105290001A821B821C828DA19EA1AFA1B8A5009786
:1052A000A105B105D1F58BE991E00E941F288EC0C0
:1052B00089A5282F30E040E050E08DA19EA1AFA14C
:1052C000B8A5BC01CD010E94362EDC01CB01482FD0
:1052D0009E012B5F3F4F89819A81820F931FFC01B2
:1052E000408389819A81AB81BC810196A11DB11D4A
:1052F00089839A83AB83BC8389A5282F30E040E063
:1053000050E08DA19EA1AFA1B8A5BC01CD010E9426
:10531000362E2DA33EA34FA358A721E08DA19EA119
:10532000AFA1B8A50097A105B10509F420E022239B
:1053300009F0BECF3EC089819A81AB81BC810197C3
:10534000A109B1099E012B5F3F4F820F931FFC0102
:1053500080818A3080F489819A81AB81BC810197F8
:10536000A109B1099E012B5F3F4F820F931FFC01E2
:105370008081805D0FC089819A81AB81BC8101975A
:10538000A109B1099E012B5F3F4F820F931FFC01C2
:105390008081895C60E070E00E942F2889819A8179
:1053A000AB81BC810197A109B10989839A83AB8341
:1053B000BC8321E089819A81AB81BC810097A105E2
:1053C000B10509F420E0222309F0B5CFA9960FB664
:1053D000F894DEBF0FBECDBFCF91DF9108951F932C
:1053E000DF93CF93CDB7DEB764970FB6F894DEBFE7
:1053F0000FBECDBF688B798B8A8B9B8B4C8B11E05A
:10540000688979898A899B8920E030E0A9010E9416
:10541000A42B88230CF010E0112369F089E991E0B6
:105420000E941F2888899989AA89BB89B058888BCE
:10543000998BAA8BBB8B80E090E0A0E0BFE38983CF
:105440009A83AB83BC831D8213C069817A818B816F
:105450009C8120E030E040E251E40E94A82BDC0176
:10546000CB0189839A83AB83BC838D818F5F8D83CE
:1054700081E02D819C89291708F080E0882329F795
:10548000688979898A899B8929813A814B815C81E4
:105490000E94DE2ADC01CB01888B998BAA8BBB8B07
:1054A000688979898A899B890E94152CDC01CB0146
:1054B0008A879B87AC87BD876A857B858C859D8520
:1054C0000E94412C9B01AC01688979898A899B895A
:1054D0000E94DD2ADC01CB018E839F83A887B987D8
:1054E0008A859B85AC85BD85BC01CD014AE050E035
:1054F0000E94F0288C898823E9F18DE991E00E94CF
:105500001F2838C06E817F818885998520E030E032
:1055100040E251E40E943E2DDC01CB018E839F834B
:10552000A887B9876E817F81888599850E94102C14
:10553000DC01CB019F878E878E859F856AE070E0B6
:105540000E9465288E859F85AA2797FDA095BA2F72
:10555000BC01CD010E94432C9B01AC016E817F8177
:10556000888599850E94DD2ADC01CB018E839F838B
:10557000A887B98781E09C89992309F480E09C89F8
:1055800091509C8B882309F0BDCF64960FB6F89498
:10559000DEBF0FBECDBFCF91DF911F9108959F93C6
:1055A0009F77ACD10F9000203AF49058A2EA2AEDF0
:1055B0003FE049E450E413D01CC25058BB27AA274F
:1055C0000ED017C208D230F00DD220F031F49F3F38
:1055D00011F41EF4D8C10EF4E095E7FBCEC1E92F1B
:1055E00019D280F3BA17620773078407950718F07A
:1055F00071F49EF531C20EF4E0950B2EBA2FA02D5A
:105600000B01B90190010C01CA01A0011124FF276F
:10561000591B99F0593F50F4503E68F11A16F0406A
:10562000A22F232F342F4427585FF3CF4695379569
:105630002795A795F0405395C9F77EF41F16BA0B2E
:10564000620B730B840BBAF09150A1F0FF0FBB1FDC
:10565000661F771F881FC2F70EC0BA0F621F731F25
:10566000841F48F4879577956795B795F7959E3F82
:1056700008F0B3CF9395880F08F09927EE0F979510
:1056800087950895A8D158F080E891E009F49EEF3D
:10569000A9D128F040E851E059F45EEF09C073C188
:1056A000DBC1E92FE078B6D168F3092E052AC1F3F2
:1056B000261737074807590738F00E2E07F8E02558
:1056C00069F0E025E0640AC0EF6307F8009407FA88
:1056D000DB01B9019D01DC01CA01AD01EF9347D0A7
:1056E00088D10AD05F91552331F02BED3FE049E49A
:1056F00050FD49EC63CF0895DF93DD27B92FBF77C5
:1057000040E85FE31616170648075B0710F4D92F29
:10571000AED19F938F937F936F9375D2E8E6F0E0BD
:1057200035D167D12F913F914F915F91B3D1DD2357
:1057300049F09058A2EA2AED3FE049EC5FE3D078C7
:105740005D274DDFDF9155C1F4D008F481E0089565
:105750000CD04FC147D140F03ED130F021F45F3F33
:1057600019F00BC1511179C10EC154D198F399238D
:10577000C9F35523B1F3951B550BBB27AA27621715
:105780007307840738F09F5F5F4F220F331F441F5A
:10579000AA1FA9F333D00E2E3AF0E0E830D0915092
:1057A0005040E695001CCAF729D0FE2F27D0660F7F
:1057B000771F881FBB1F261737074807AB07B0E8BE
:1057C00009F0BB0B802DBF01FF2793585F4F2AF0D4
:1057D0009E3F510568F0D1C040C15F3FECF3983E59
:1057E000DCF3869577956795B795F7959F5FC9F731
:1057F000880F911D9695879597F90895E1E0660FBA
:10580000771F881FBB1F621773078407BA0720F032
:10581000621B730B840BBA0BEE1F88F7E09508959B
:1058200004D06894B11119C10895FCD088F09F5735
:1058300090F0B92F9927B751A0F0D1F0660F771FDC
:10584000881F991F1AF0BA95C9F712C0B13081F0BC
:1058500003D1B1E0089500C1672F782F8827B85F82
:1058600039F0B93FCCF3869577956795B395D9F71D
:105870003EF490958095709561957F4F8F4F9F4F27
:105880000895E89409C097FB3EF490958095709533
:1058900061957F4F8F4F9F4F9923A9F0F92F96E97C
:1058A000BB279395F695879577956795B795F111F1
:1058B000F8CFFAF4BB0F11F460FF1BC06F5F7F4F8E
:1058C0008F4F9F4F16C0882311F096E911C07723A0
:1058D00021F09EE8872F762F05C0662371F096E8A9
:1058E000862F70E060E02AF09A95660F771F881F78
:1058F000DAF7880F9695879597F90895DF93CF93F8
:105900001F930F938B01EC01E5E9F0E03FD071D0DC
:105910009801AE018B01EC0160E070E080E89FE34C
:105920004CDE33D19801AE010F911F91CF91DF91E1
:10593000B1C0990F0008550FAA0BE0E8FEEF16164C
:105940001706E807F907C0F012161306E407F50773
:1059500098F0621B730B840B950B39F40A2661F0E7
:10596000232B242B252B21F408950A2609F4A1408A
:10597000A6958FEF811D811D089597F99F6780E897
:1059800070E060E008959FEF80EC0895DF93CF937F
:105990001F930F93FF92EF92DF927B018C0168942B
:1059A00005C0DA2EEF0176D0FE01E894A59125918D
:1059B000359145915591AEF3EF0111DEFE0197014E
:1059C000A801DA9479F7DF90EF90FF900F911F9183
:1059D000CF91DF91089500240A9416161706180631
:1059E0000906089500240A941216130614060506E3
:1059F0000895092E0394000C11F4882352F0BB0F74
:105A000040F4BF2B11F460FF04C06F5F7F4F8F4FD6
:105A10009F4F089557FD9058440F551F59F05F3F11
:105A200071F04795880F97FB991F61F09F3F79F0C0
:105A300087950895121613061406551FF2CF469542
:105A4000F1DF08C0161617061806991FF1CF8695C4
:105A50007105610508940895E894BB2766277727A8
:105A6000CB0197F9089565DF08F48FEF08959B0146
:105A7000AC0160E070E080E89FE36ACE0BD0B9CF64
:105A8000AADF28F0AFDF18F0952309F076CF7BCF9F
:105A90001124E3CFBFDFA0F3959FD1F3950F50E022
:105AA000551F629FF001729FBB27F00DB11D639FD0
:105AB000AA27F00DB11DAA1F649F6627B00DA11D76
:105AC000661F829F2227B00DA11D621F739FB00D1C
:105AD000A11D621F839FA00D611D221F749F33278C
